:020000040800F2
:1000000040D3012039030008E5C30008DDAF000834
:10001000E1C30008C91E0008AD4A01080000000045
:10002000000000000000000000000000E1E6000801
:10003000992400080000000071C4000801EC0008C9
:100040005303000853030008530300085303000838
:10005000530300085303000853030008A5270008B2
:10006000B1270008BD270008C9270008530300086E
:100070005303000853030008530300085303000808
:10008000A11F00085303000853030008530300088E
:10009000530300085303000853030008D527000842
:1000A00053030008530300085303000853030008D8
:1000B00053030008530300085303000853030008C8
:1000C00053030008530300085303000853030008B8
:1000D000530300086DF80008530300085303000899
:1000E00053030008C9C6000853030008530300085F
:1000F00005ED0008530300085303000853030008EC
:100100005303000839CA00085303000853030008CA
:10011000530300085303000853030008F5EC0008DC
:10012000B11F00085303000853030008C11F000853
:100130005303000853030008530300085303000847
:1001400053030008530300085303000855C4000874
:1001500053030008D11F0008530300087DF800086E
:100160005303000853030008530300085303000817
:100170005303000853030008530300080000000065
:10018000530300085303000800F002F800F0C4F81D
:100190000AA090E8000C82448344AAF10107DA45E2
:1001A00001D100F0B9F8AFF2090EBAE80F0013F070
:1001B000010F18BFFB1A43F001031847EC79020046
:1001C0002C7A02000A444FF0000C10F8013B13F0A7
:1001D000070408BF10F8014B1D1108BF10F8015BA0
:1001E000641E05D010F8016B641E01F8016BF9D193
:1001F00013F0080F1EBF10F8014BAD1C0C1B09D1EA
:100200006D1E58BF01F801CBFAD505E014F8016B5B
:1002100001F8016B6D1EF9D59142D6D370470000ED
:10022000103A24BF78C878C1FAD8520724BF30C822
:1002300030C144BF04680C607047000000230024F4
:1002400000250026103A28BF78C1FBD8520728BFE6
:1002500030C148BF0B6070476E2900F00F837029D2
:1002600000F0638466291FF0988265291FF095824B
:1002700067291FF0928261291FF0918203681B0A8F
:1002800028BF41F08001692900F0BC82642900F098
:10029000B982752900F0B6826F2900F0F1837829C0
:1002A00000F02F84E92900F08B83E42900F0888393
:1002B000F52900F08583EF2900F0EE83F82900F09E
:1002C0002E840368DB0928BF41F08001632901F017
:1002D0007F81732901F08481E32901F08F81F32963
:1002E00001F09481002070471FB51FF044FA9DE88B
:1002F000030000F0EFF901F0EBF904000020002109
:100300001EF098FF401C6060002000211EF07CFF62
:10031000E0601FBD10B510BD01F0ACF91146FFF74C
:10032000E3FF18F075FB01F089FA03B4FFF7F2FF61
:1003300003BC01F0B9FA00000948804709480047AA
:10034000FEE7FEE7FEE7FEE7FEE7FEE7FEE7FEE785
:10035000FEE7FEE704480549054A064B70470000E2
:10036000E1EC0008890100084891012040D30120F8
:100370004893012040CF012070B5064600F08EF969
:10038000056806F10B0020F00704B4429CBF002072
:1003900070BD2B466A68BAB11068A04210D304F150
:1003A000080188423CBF5068586007D35168101953
:1003B00041601168091B016058601460101D70BD18
:1003C00013465268002AE7D12146284600F06EF90C
:1003D0000028DED170BD70B50446051F00F05EF93F
:1003E0000068002C14BF446870BD002C18BFAC42DC
:1003F0003CBF20466468F8D301680A18AA4218BFB7
:10040000456003D12A6805461144016028684119F6
:10041000A1421CBF6C6070BD6168696021680844BE
:10042000286070BD53EA020C00F069802DE9F04BA2
:100430004FF00006002B1FBFB3FA83F503FA05F453
:1004400024FA05F65E4012BF1643B2FA82F502FAAC
:1004500005F4C5F120051EBF22FA05FC44EA0C0490
:10046000203556EA044C4FEA144418BF641C4FF080
:1004700000084FF00009904271EB030C39D30029BA
:1004800019BFB1FA81F701FA07F6B0FA80F700FA5E
:1004900007F6C7F120071EBF20FA07FC46EA0C0644
:1004A0002037B6FBF4FCA7EB0507103F07F01F0B46
:1004B000CBF120062CFA06F60CFA0BFB44BFB34630
:1004C0000026202FA4BF5E464FF0000B5BEA060C0F
:1004D00008BF4FF0010B19EB0B0948EB0608ABFB0B
:1004E000027C06FB02CC0BFB03CCC01B71EB0C01A6
:1004F000C1E70B46024641464846BDE8F08B13B5BE
:10050000084318BF4FF0FF300146AFF30080BDE84D
:100510001C4070470FB4044910B503AA029800F0BC
:10052000DFF910BC5DF814FBBC7300200FB41CB5E0
:10053000084B06AA7B4469460090059800F0B7F97D
:1005400004460020694600F0C5F920461CBC5DF851
:1005500014FB00009D030000032A40F2308010F0DD
:10056000030C00F0158011F8013BBCF1020F62444E
:1005700098BF11F801CB00F8013B38BF11F8013BDF
:10058000A2F1040298BF00F801CB38BF00F8013B8C
:1005900011F0030300F09883083AC0F0088051F886
:1005A000043B083A51F804CBA0E80810F5E7121D07
:1005B0005CBF51F8043B40F8043BAFF30080D20726
:1005C00024BF11F8013B11F801CB48BF11F8012BF2
:1005D00024BF00F8013B00F801CB48BF00F8012B15
:1005E000704702F0FF0343EA032242EA024200F0AE
:1005F0000AB802F0FF0343EA032242EA024200F093
:1006000024B84FF000020429C0F0128010F0030C4F
:1006100000F01B80CCF1040CBCF1020F18BF00F8F5
:10062000012BA8BF20F8022BA1EB0C0100F00DB8A4
:100630005FEAC17C24BF00F8012B00F8012B48BF02
:1006400000F8012B70474FF0000200B513469446A6
:100650009646203922BFA0E80C50A0E80C50B1F11A
:100660002001BFF4F7AF090728BFA0E80C5048BF2E
:100670000CC05DF804EB890028BF40F8042B08BFCC
:10068000704748BF20F8022B11F0804F18BF00F8C8
:10069000012B704770477047704700000048704753
:1006A00090C00120704770477047704738B50446C6
:1006B0000A4600206946AFF30080002808BF38BD15
:1006C00002460099204600F035FB012038BD01208C
:1006D00000F0C8BFF8B5AFF30080054600200C4617
:1006E000102000BF0646A819A0420DD9324669461F
:1006F0000020AFF30080070008BF00F0B3FF0098B0
:10070000A04218BF0546C419FFF7C8FF0560074699
:10071000F01D20F007004619284600F00AF8B44200
:1007200008BFF8BDA21B31463868BDE8F84000F0AC
:1007300001BB00210160C0E9011070471020704723
:1007400070B5044685690068C10601D5302600E011
:100750002026C00707D070BDD4E90121304690475C
:10076000206A401C20626D1EF6D570BD70B504462F
:1007700085690078C00707D170BDD4E90121202028
:100780009047206A401C20626D1EF6D570BD096836
:100790004A0501D540B27047C905FCD500B2704783
:1007A00009684A0501D5C0B27047C905FCD580B2B9
:1007B000704770B50C460546012A05D0287880069A
:1007C00000D5EA69002302E0012305E05B1C9342A7
:1007D00002D2E05C0028F9D1A869E618C01AA86125
:1007E000286A184428622846FFF7AAFF04E0D5E9E2
:1007F000012114F8010B9047B442F8D32846FFF7C3
:10080000B5FF70BD2DE9F04106460024106875293A
:10081000314616A510D0FFF7BAFF002802DA404291
:1008200013A507E031688A0701D512A502E0490740
:1008300004D511A5012401E0FFF7B2FF00210A222F
:1008400006F1240709E0B0FBF2FCB0FBF2F302FB77
:100850001C00303078541846491C0028F3D1234638
:100860002A463046BDE8F04100F0C3BA000000005F
:100870002D0000002B00000020000000116802681D
:10088000006A530501D508700AE0D30501D5088038
:1008900006E0130603D5C217C1E9000200E00860B4
:1008A0000120704701694A1C02610878704700B551
:1008B0008FB0CDE901310021059105497944CDE999
:1008C00003101146684600F03BF90FB000BD000070
:1008D000E5FFFFFF0A6802F8010B0A60704700009D
:1008E000074B70B50D467B44FFF7E1FF04462846F1
:1008F00000F090FE10B14FF0FF3070BD204670BD8B
:10090000CB7801002DE9FF5F15468A460446DFF8E3
:10091000AC80F8440027D8E900103E46CDE900102D
:1009200010E03AF816106A4602A800F077FE411C63
:1009300007D02178890603D5E269391891420DD88C
:100940000744761C2078800602D5E069B84205DDB0
:10095000AE42E6DB3AF816000028E2D1A069C01BDF
:10096000A0612046FFF7ECFED8E90010CDE90010A9
:10097000002017E03AF818106A4602A800F04EFE70
:10098000B0F1FF3F81460BD000250DF1080B05E0CB
:10099000D4E901211BF8050090476D1C4D45F7D3A4
:1009A00008F10100B0428046E4DB206A384420624E
:1009B0002046FFF7DBFEBDE8FF9F00008EEE010042
:1009C0002DE9F0418046D21D22F007020025D2E930
:1009D0000002F52915A614D0011E72F1000106DAF5
:1009E0000023D0EB030063EB020211A608E0D8F865
:1009F00000108B0701D50FA602E0490701D50EA60E
:100A000001251146002408F1240704E000F0ACF9A8
:100A100030323A55641C50EA0102F7D12B46324677
:100A200021464046BDE8F04100F0E3B90000000077
:100A30002D0000002B0000002000000030B4002139
:100A400000F1240408E002F00705D208303542EA3C
:100A50004372DB086554491C52EA0305F3D104686C
:100A6000002310A2250708D504F020040C4304D06D
:100A7000C46901230CA2641EC46130BC00F0B9B982
:100A800010B5044621461068FFF78AFE024620464C
:100A9000BDE810400023D1E7D21D22F00701D1E9C3
:100AA0000023CBE70000000030000000F0B40D464A
:100AB0000188090502D5214C7C4402E01F4C7C448E
:100AC0000E34002100F1240608E002F00F0712099D
:100AD000E75D42EA03721B097754491C52EA030797
:100AE000F3D102780023120704D5702D06D009B186
:100AF000022311342246F0BC00F07BB901231034EC
:100B0000F8E770B504460D4621461068FFF748FE29
:100B1000024629462046BDE870400023C6E7D21DA4
:100B200022F00703D3E90023C0E70368126843F00B
:100B3000200303600823C3610023B7E7F0EC010042
:100B40002DE9F05F894604464FF0000ADFF874B1E2
:100B5000FB44C0F820A02046E1688847002874D0F4
:100B6000252806D0D4E901219047206A401C206244
:100B7000F1E700265F462046E168884720280546C1
:100B800007DB312D05D2781910F8200C08B1064387
:100B9000F1E7B00701D526F00406C4F81CA0002731
:100BA000C4F818A02A2D09D028461EF025FB38B31A
:100BB00004EB8708303DC8F8185019E059F8041BB9
:100BC000204604EB87029161E1688847012F0546C2
:100BD00018D1E069002820DA26F020061DE0D8F8B8
:100BE000180000EB800005EB40003038C8F8180012
:100BF0002046E168884705461EF0FEFA0028EED13F
:100C0000012F0AD02E2D08D12046E16888477F1C8D
:100C10000546022F46F02006C4DBA069002803DA4F
:100C2000404246F00106A061F00701D026F0100610
:100C30006C2D0BD0682D09D04C2D39D06A2D35D0B4
:100C4000742D35D07A2D33D016E038E0E1682F4688
:100C500020468847B842054609D16C2F26D04FF46C
:100C60008060E168064320468847054604E06C2F13
:100C70001AD04FF4807006430DB3A5F14100192836
:100C800002D8203546F400664A46294620462660AA
:100C90004E46FFF7E1FA80B101280BD0F61D26F091
:100CA000070000F1080956E74020E4E78020D8E774
:100CB0000020D6E706F104094DE7284652E7206AEE
:100CC000BDE8F09F80EC010010B5203AC0F00B8029
:100CD000B1E81850A0E81850B1E81850A0E8185032
:100CE000203ABFF4F5AF5FEA027C24BFB1E81850A8
:100CF000A0E8185044BF18C918C0BDE810405FEA0A
:100D0000827C24BF51F8043B40F8043B08BF704785
:100D1000D20728BF31F8023B48BF11F8012B28BF8A
:100D200020F8023B48BF00F8012B7047004870478D
:100D300088C00120034640688C46002818BF8842BE
:100D40003CBF03464068F8D318681844884207D06F
:100D50000CF1030020F00700001D411A521A014651
:100D6000081D0A60FFF737BB30B5B0F10A0271F118
:100D700000034FEA900E4EEA817EB0EB0E0061EB6D
:100D800091014FEA101E4EEA017E10EB0E0041EB7E
:100D900011114FEA102E4EEA016E10EB0E0041EBDE
:100DA00011214FEA104E4EEA014E10EB0E0041EBBE
:100DB0001141401841F100014FEAD00040EA417072
:100DC0004FEAD1014FEA810444EA907410EB8005A8
:100DD00044EB01046D1944EB0404521BA3414FF092
:100DE000000348BF0A3200D530BD401C41F100016C
:100DF00030BD2DE9F0470D4699469246044600F174
:100E000024080168880604D5E06921F010012160FA
:100E100000E00120A84201DD471B00E00027A16996
:100E20007A1902EB0900081AA0612078C00602D4E2
:100E30002046FFF785FC002608E0D4E901211AF8D6
:100E400006009047206A401C761C20624E45F4DB69
:100E50002078C0060AD52046FFF772FC06E0D4E9E8
:100E6000012130209047206A401C2062381EA7F1E3
:100E70000107F4DC07E0D4E9012118F805009047E8
:100E8000206A401C2062281EA5F10105F3DC2046E3
:100E9000FFF76CFC2078000602D50220BDE8F08741
:100EA0000120FBE72DE9FF4F0C461E464FF0FF37B0
:100EB0008BB0D2E90001DDF860800A908A46C1F368
:100EC0000A5505B93D46002108464FF00000BAF129
:100ED000000F00F4400005DA00EB80004FF4400101
:100EE00001EA50004FEA9059B9F1010F00DDB9460F
:100EF0000A9850EA4A000ED044F61050A5F2FF3589
:100F000045432F14B8F1000F1ED07542291E1EDD77
:100F1000C9F100021CE0B8F1010F4FF0000001D050
:100F2000302103E0F24305E02154401CB042FBDBDA
:100F300030460022002121540B99C1F80880C1E9F4
:100F400000200FB0BDE8F08FBD1B6D1CDEE74A46E8
:100F500000DA694206A800F0FFFB06AB93E8070041
:100F600003AB83E8070050460A991DF065FD8DE844
:100F70000700A0F500501F3800900398002D0ADDEF
:100F800042F21F014A460844002303A90390684621
:100F90001DF0CEFF09E0A0F500504A461F3800239F
:100FA00003A9039068461DF0D8FF8DE807000004F0
:100FB000000C03D04FF0FF30410800E01046B8F1BC
:100FC000000F03D00022009215461EE0751E05D4C6
:100FD000FFF7CAFE303262556D1EF9D5B3460122C5
:100FE000084302D000227F1C04E02078302801D181
:100FF00000227F1E002A099784D01DE0112D07DAF8
:10100000FFF7B2FE303262556D1C50EA0102F5D195
:10101000084302D00098C8B10EE00021681E05E028
:10102000235C625C63542254401E491C8142F7DBFE
:10103000AB46A81B401E0990002004F80B000B983B
:10104000099AC0F80880C0E9002B7AE711264FF012
:10105000000857E72DE9F04F88460446D21D22F0DC
:10106000070191B0D1E90001CDE90A011EF0ACF809
:1010700002460B98C00F01D02D2007E020688107A1
:1010800001D52B2002E0202101EAC000032A0990AB
:1010900001D0072A05DB03464146204600F01CFB31
:1010A0000BE12078800601D5E06900E00620B8F168
:1010B000650F814606D0B8F1660F18D0B8F1670FFA
:1010C00070D131E00020B9F1110F009001DB112344
:1010D00001E009F101030AAA01A90CA8FFF7E2FE49
:1010E000DDE90C70002609F10105834647E0012087
:1010F0004B4600904FF000470AAA01A90CA8FFF741
:10110000D1FEDDE90DB00C995D46002610B909F15C
:1011100001000D18B9EB050003D4C0F1FF3609F149
:101120000105A5EB09002BE0B9F1010F01DA4FF041
:1011300001090020B9F1110F0090484601DD11238B
:1011400000E003460AAA01A90CA8FFF7ABFEDDE9FF
:101150000C704D4600268346207800070AD4AB4524
:1011600000DA5D4601A8012D04DD411911F8011CCA
:10117000302907D04F4502DA17F1040F04DA0120B5
:1011800082460FE06D1EEEE7002F02DCED1B3E44B1
:1011900003E0781CA84200DD7D1CB81B00F1010AA9
:1011A0004FF000472078000703D4AA4501DB4FF039
:1011B000FF3A0021B7F1004F0DF143088DF84310BD
:1011C00024D002202B23002F01DA7F422D230A2175
:1011D000021EA0F1010000DC5FB197FBF1FC97FB60
:1011E000F1F201FB1C7C17460CF1300C08F801CD24
:1011F000EEE7A8F1010003702188090501D545211A
:1012000000E06521A0F1010800F8011C09980FA970
:10121000A1EB0807FF1D00B10120411901EBEA70A5
:10122000A1693844081A401EA0612078C00602D483
:101230002046FFF785FA099828B1D4E901219047A3
:10124000206A401C20622078C00622D52046FFF785
:1012500077FA1EE0002E04DBB34502DD01A8805DB5
:1012600000E03020D4E901219047206A401C206230
:10127000761CAAF101005FEA000A0AD100F028FA00
:10128000C0680168405CD4E901219047206A401C95
:101290002062281EA5F10105DCDC07E0D4E901216C
:1012A00018F8010B9047206A401C2062381EA7F1F5
:1012B0000107F3DC2046FFF759FA032011B041E69D
:1012C0002DE9F04F04460D46D21D22F0070089B0EB
:1012D000D0E90097484639461DF076FF0246F80FE0
:1012E00001D02D2307E02068810701D52B2302E0E0
:1012F000202101EAC0038DF820300BB1012000E06D
:101300000020032A824601D0072A04DB2946204612
:1013100000F0E2F93FE12078800601D40D2500E0DD
:10132000E569C7F30A560D2D49DA00214FEA175B2C
:1013300008464FF00000002F00F4400007DA00EBF1
:1013400080004FF4400100EBD07001EA600081158D
:10135000012901DD4FF0FF3100224FEA850CBCF17D
:10136000180F06D31346ACF118004FF08052C2405C
:1013700003E04FF4801323FA0CF30CF10C0CBCF1D6
:10138000200F04D3ACF1200C09FA0CF001E007FAAD
:101390000CF000294FF0004801DD18B90FE00ED124
:1013A00040450CD319EB02095F4121B9404502D1F8
:1013B0009F4329EA0209BBEB175F00D0761C208807
:1013C000000502D57B48784402E07A487844193811
:1013D00008AA302302F80A30037C0AF10101002E2A
:1013E0000AF1020A53546A4602DC4FF0300101E070
:1013F0004FF031014FF001088DF8001002D0A6F235
:10140000FF3603E059EA470100D06B4E002D02DCA5
:101410002178090704D54FF002082E218DF801101C
:10142000C44600210BE0C7F303433F01C35C491CE2
:101430006D1E02F80830052908F1010801DA002DB7
:10144000F1DC00210CE000EB1973491C1B786D1EC8
:10145000082902F808304FEA091908F1010801DAF1
:10146000002DF0DC21688B0602D516E0A8F10108FA
:10147000E04505DD02EB080313F8013C302BF5D005
:10148000B8F1000F09DD02EB080313F8013C2E2B25
:1014900003D1090701D4A8F10108002D05DD3E2183
:1014A00002F808106D1E08F10108407C002E02F8B9
:1014B000080008F1010804DA2D20764202F808003D
:1014C00002E02B2002F808000A214FF47A708642CD
:1014D00008F101080BDB96FBF0F3303302F808301B
:1014E00096FBF0F308F1010800FB136601E0642E9F
:1014F0000CDB642096FBF0F3303302F8083096FBE7
:10150000F0F308F1010800FB136601E00A2E06DB88
:1015100096FBF1F0303002F8080008F1010896FB64
:10152000F1F001FB1060303002F80800A16908F109
:10153000010808EB050202EB0A00081AA0612078F6
:10154000C00602D42046FFF7FBF8216A08AE01EB83
:101550000A00206204E0D4E9012116F8010B90474B
:10156000BAF1010AF7D22078C00602D52046FFF76B
:10157000E7F86E4609E016F8010B3E280FD0D4E9D3
:1015800001219047206A401C2062B8F10108F2D284
:101590002046FFF7EBF809B00320BDE8F08F206A82
:1015A0002844206203E0D4E90121302090476D1ED9
:1015B000EBD3F8E72EE4010002FCFFFF10B543690E
:1015C00013B1AFF3008001E0FFF7F3F8012010BD85
:1015D000127800F124010A7000224A700122EDE71E
:1015E00011684FF0FF32E9E710B5436913B1AFF36B
:1015F000008001E0FFF786F9012010BD128800F19C
:10160000240182840022C2840122EDE711684FF098
:10161000FF32E9E7007B00F0800070472DE9F041E0
:1016200016460C46054600F04BF8036893F8010196
:10163000012807D0FF2C12D8185D80B101202C7032
:10164000BDE8F081D3F807013246214603F20713C3
:10165000C7182846BC46BDE8F041002360474FF05C
:10166000FF30EDE710B500F0F7F8BDE8104000F0EE
:10167000EEB870477546FFF759FBAE460500694660
:10168000534620F00700854618B020B5FEF762FEED
:10169000BDE820404FF000064FF000074FF0000873
:1016A0004FF0000BAC46ACE8C009ACE8C009ACE8B0
:1016B000C009ACE8C00921F007018D467047000061
:1016C00010B500F005F8001D10BD00BF69DB01007A
:1016D00000487047A8C001202DE9F0411F4604468C
:1016E00003260168072A01F4006004DB08B116A58F
:1016F00005E016A503E008B115A500E015A521F049
:1017000010002060A069C01EA0610FB1401EA06142
:101710002046FFF715F84FB1D4E90121384690472C
:10172000206A401C2062C01C206206E0206AFAE7A2
:10173000D4E9012115F8010B9047761EF8D2204616
:10174000FFF714F8BDE8F0814E414E006E616E0067
:10175000494E4600696E66002DE9F04781461646FF
:101760008AB0354878440DC88DE80D003248784479
:10177000801C03AC0DC884E80D0041F69B30084482
:10178000372190FBF1F290FBF1F5A5F1800501FB0B
:1017900012041B3C02D56442012000E00020DFF867
:1017A00098A080460027FA44AAF1BE0A0EE0E0079E
:1017B0000AD03246684607EB470101230AEB810154
:1017C0001DF0CBFB8DE8070064107F1C002CEED1D0
:1017D000194F7F44AE3F19E0E80715D007EB04101E
:1017E0000DF1180A90E80E008AE80E00C068F04279
:1017F00001D1981908903246012306A903A81DF0CB
:10180000ACFB03AB83E807006D10641C002DE3D133
:101810004FF0010332466946B8F1000F03A802D029
:101820001DF086FB01E01DF098FBC9E90001C9F835
:1018300008200AB0BDE8F08720E1010010B5044699
:10184000AFF300802046BDE81040FEF76EBD0028D3
:1018500001D000F029B8704710B5012805D000214B
:1018600003A000F027F8012010BD09A1F8E700004F
:1018700053494752544D454D3A204F7574206F6679
:101880002068656170206D656D6F727900000000E1
:101890003A2048656170206D656D6F727920636FC5
:1018A000727275707465640001491820ABBEFEE762
:1018B0002600020070B505460C460A2000E06D1CAB
:1018C00000F050F835B128780028F8D102E0641C07
:1018D00000F048F814B120780028F8D1BDE8704035
:1018E0000A2000F03FB8000030B44FF0013C50F83F
:1018F000042B51F8043BCCFA52F4D51A20D1FCB990
:1019000050F8042B51F8043BCCFA52F4D51A17D1F5
:10191000B4B950F8042B51F8043BCCFA52F4D51A60
:101920000ED16CB950F8042B51F8043BCCFA52F4A8
:10193000D51A05D1002CDAD030BC4FF0000070472A
:1019400029BAB1FA81F111F01801D1F120008440D7
:10195000F2D1CA40CB4012F0FF0213F0FF0330BCBB
:10196000D01A704708B569468DF800000320ABBE59
:1019700008BD000080B582B001900198806B009096
:101980000098006C10F0500F3AD1FFE70099086CF6
:1019900040F40070086400980068806810F0405FB0
:1019A0002AD1FFE70098007E30BBFFE7009800686F
:1019B000C06A10F4700F07D0FFE7009800688068D5
:1019C0004005002818D4FFE700980168486820F017
:1019D000200048600099086C20F48070086400982A
:1019E000006CC004002806D4FFE70099086C40F0A2
:1019F00001000864FFE7FFE7009801F0E1FB10E059
:101A00000098006CC006002804D5FFE7009801F09C
:101A10003FFC05E00098806BC16C01988847FFE7A8
:101A2000FFE702B080BD000080B582B00190019850
:101A3000806B00900099402008640099486C40F049
:101A400004004864009801F023FC02B080BD00004F
:101A500080B582B001900198806B0090009801F0F1
:101A6000E3FB02B080BD000082B0019042F2003082
:101A7000C4F2010000900099486820F440304860AA
:101A800001984268009948681043486001980168CD
:101A9000486820F4807048600198016802694868CD
:101AA00040EA0220486001980168486820F04070D0
:101AB000486001980168826848681043486001984E
:101AC0000168886820F40060886001980168C26835
:101AD0008868104388600198806A0121C0F600710F
:101AE000884219D0FFE701980168886820F070608B
:101AF000886001980168826A88681043886001984C
:101B00000168886820F04050886001980168C26AC6
:101B10008868104388600CE001980168886820F0AC
:101B20007060886001980168886820F04050886083
:101B3000FFE701980168886820F00200886001983A
:101B4000027E0168886840EA42008860019890F847
:101B50002000C8B1FFE701980168486840F40060C0
:101B6000486001980168486820F460404860019826
:101B70000168426A4EF20000CFF6FF7000EB42327D
:101B800048681043486006E001980168486820F4FE
:101B900000604860FFE701980168C86A20F470009F
:101BA000C86201980168C2690020CFF6F07000EBAE
:101BB0000252C86A1043C86201980168886820F41C
:101BC00000708860019890F830200168886840EAC9
:101BD0004220886001980168886820F480608860ED
:101BE000019801684269886840EA8220886002B0F2
:101BF000704700007047000080B582B001900199E5
:101C00004FF24060C2F2000005F008FC02B080BD57
:101C100080B54FF24060C2F2000005F025FC0438A8
:101C200018BF012080BD000080B582B000208DF873
:101C3000060000F019F8012804D0FFE701208DF814
:101C400007000CE04FF24060C2F2000005F0CAFD50
:101C50008DF806009DF806008DF80700FFE79DF857
:101C6000070002B080BD000081B001208DF80300A4
:101C70009DF8030001B0704780B584B003900291D5
:101C8000019200208DF803000399029A019B4FF204
:101C90004060C2F2000005F053FF20B1FFE70120D1
:101CA0008DF80300FFE79DF8030004B080BD00003D
:101CB00080B582B00120ADF806004CF2F400C2F20B
:101CC000010000680DF1060100231A4617F028F9FB
:101CD00002B080BD80B584B00390029101920020D3
:101CE0008DF803000399029A019B4FF24060C2F203
:101CF000000006F017F820B1FFE701208DF803007F
:101D0000FFE79DF8030004B080BD000080B582B0FD
:101D10000220ADF806004CF2F400C2F201000068A7
:101D20000DF1060100231A4617F0FAF802B080BD43
:101D300010B58CB08DF82F00ADF82C1047F2F8617B
:101D4000C0F60201009108684A688B68D1F80CC09F
:101D5000D1F810E04C690894CDF81CE0CDF818C01B
:101D60000593049203908869C9690A9109909DF8C6
:101D70002F103E2000EA910002900298002803DC18
:101D8000FFE701200290FFE79DF82F0000F0070019
:101D90008DF82F009DF82F00012851DBFFE79DF8FB
:101DA0002F1003A800EB810090ED000A9DED021AB0
:101DB000B8EEC11A20EE011A9FED260A80EE010A44
:101DC000B0EE001A80EE010ABFEE001A30EE010AF2
:101DD0008DED010AFFE79DED010ABDEEC00A10EE90
:101DE000100A4FF21C71C2F200010A68D0629DED28
:101DF000010ABDEEC00A10EE100AC860FFE79DEDB3
:101E0000010AB0EE001A80EE010A4FF21C70C2F215
:101E100000000168BCEEC00A81ED0D0A002107F048
:101E20005FF89DF82F004CF20051C2F201010870DA
:101E3000BDF82C004CF2FE41C2F20101088007E01F
:101E40004FF21C70C2F20000002107F02FF9FFE7EB
:101E50000CB010BD0024744980B54CF20050C2F2A1
:101E600001000078012810DBFFE74CF2FE40C2F2CF
:101E700001000088012808DBFFE74CF2FE41C2F2B6
:101E800001010888013808801DE04CF20050C2F2C0
:101E900001000078012808DBFFE74FF21C70C2F256
:101EA0000000002107F002F9FFE74CF20050C2F2F7
:101EB00001000022027040F20040C4F20200102132
:101EC00002F044FCFFE780BDFFE7FEE780B582B08B
:101ED00001900198806B0090009801F091FC0099AE
:101EE0000120087102B080BD80B582B001900198D8
:101EF000806B0090009801F017FC00990120087198
:101F000002B080BD80B582B001900198806B0090D6
:101F10000099086940F004000861009801F0DCFCB9
:101F200000990120087102B080BD000080B582B028
:101F300001900198806B00900099086940F00400BE
:101F40000861009801F0F8FB00990120087102B0C7
:101F500080BD000080B582B001900198806B009038
:101F6000009801F083FC02B080BD000080B582B013
:101F700001900198806B0090009801F0D9FB02B0AD
:101F800080BD000081B08DF803008DF802109DF82F
:101F900002009DF8031040EA012001B070470000E4
:101FA00080B54FF28050C2F2000001F0EBFE80BD20
:101FB00080B54CF21450C2F2010001F0E3FE80BD86
:101FC00080B54CF27450C2F2010001F0DBFE80BD1E
:101FD00080B54FF2E050C2F2000001F0D3FE80BDA8
:101FE00082B001900198007810384AF6AB21CAF609
:101FF000AA21A0FB01100009009000994FF6B8003B
:10200000C0F60100405C0199C8650098042807D318
:10201000FFE701990868042262F30900886506E079
:102020000199086840F2FF3290438865FFE7019804
:10203000806D02B07047000086B0059000208DF8DA
:1020400013000598806A03900598806910BBFFE72C
:102050000398029003281BD80299DFE801F0020DD3
:102060000218059890F82F00C00720B1FFE7012063
:102070008DF81300FFE70CE00598C06AB0F1C07F4F
:1020800004D1FFE701208DF81300FFE701E000E035
:10209000FFE745E005988069B0F5005F25D1FFE7CF
:1020A0000398019003281ED80199DFE801F0020689
:1020B000021101208DF8130016E0059890F82F000A
:1020C000C00720B1FFE701208DF81300FFE70BE008
:1020D0000598C06AB0F1C07F04D1FFE701208DF8F8
:1020E0001300FFE700E0FFE719E0039800900328E2
:1020F00004D3FFE70098032804D00EE001208DF8F8
:1021000013000BE0059890F82F00C00720B1FFE7FF
:1021100001208DF81300FFE700E0FFE7FFE7FFE78E
:102120009DF8130006B0704784B0039002910192AD
:10213000009303980168086820F4802008600098E4
:1021400003990968486003988068402809D1FFE72F
:102150000198039909688860029803990968C86022
:1021600008E0029803990968886001980399096852
:10217000C860FFE704B0704780B582B08DF80700F3
:102180008DF806108DF805200AF0B0FBCC200090E9
:1021900000F08AF84E2000F087F89DF8050000F066
:1021A00083F89DF8060000F07FF89DF8070000F026
:1021B0007BF80AF09BFB009800F076F8482000F0CE
:1021C00073F8FFE741F20000C4F20200012102F0BF
:1021D000A5FA08B9FFE7F5E702B080BD80B584B085
:1021E00041F20000C4F202000122114602F0AEFAF0
:1021F000052013F09DFC08208DF80F00FFE79DF8E7
:102200000F00012841DBFFE79DF80E0040088DF824
:102210000E0041F20000C4F202000190012102917F
:10222000002202F093FA0520009013F081FC01983F
:10223000029A114602F08AFA009813F079FC01988C
:10224000029902F06BFA38B1FFE79DF80E0040F0FA
:1022500080008DF80E0006E09DF80E0000F07F0073
:102260008DF80E00FFE7412013F062FC41F2000000
:10227000C4F202000122114602F068FAFFE79DF85D
:102280000F0001388DF80F00B9E79DF80E0004B07B
:1022900080BD000080B50AF029FBCC2000F004F8D6
:1022A000442000F001F880BD80B582B08DF80700B1
:1022B00008208DF80600FFE79DF8060001283CDBAA
:1022C000FFE741F20000C4F202000121002202F007
:1022D0003DFA052013F02CFC9DF80700C00748B11B
:1022E000FFE741F20000C4F202000122114602F0B1
:1022F0002DFA08E041F20000C4F2020001210022A0
:1023000002F024FAFFE7412013F012FC41F2000032
:10231000C4F202000122114602F018FA022013F062
:1023200007FC9DF8070040088DF80700FFE79DF8BF
:10233000060001388DF80600BEE702B080BD00003F
:1023400080B586B000200590049003900290019023
:10235000FFE70020009043F63000C4F2020001685D
:1023600041F010010160006800F01000009000983A
:10237000FFE701200190029000200390049041F2B9
:102380000000C4F2020001A901F0ECFF06B080BD1C
:102390004EF6FC51CEF20001086840F080700860F3
:1023A00041F20001CEF20001086840F0010008602F
:1023B00041F20401CEF200010020086070470000E5
:1023C00080B584B0039000200290FFE702980F28A8
:1023D0000CD8FFE70398029900EB81010020C1F8B7
:1023E0008403FFE7029801300290EFE7002002909B
:1023F000FFE702990020B0EB512F0BD1FFE70398C4
:1024000002990144002081F81C01FFE70298013085
:102410000290EEE70399002001900870039948703C
:10242000039A01219170039AC2F8C403039A1176AA
:10243000039B40229A71039A5076039A82F81C03F8
:10244000039A82F81D13039981F81F03039981F8F9
:102450001E0303981C304FF48071FEF7F4F80398C4
:1024600000F58E704FF40071FEF7EDF801980399B6
:10247000A1F83603C1F83203C1F82E03C1F82A03CC
:10248000C1F82603039800F54E703E21FEF7DBF8F5
:10249000019804B080BD00007047000080B59EB078
:1024A000DDF880C01D901C911B921A931B98007838
:1024B0008DF867001A9800F0070001461891072868
:1024C0000ED81899DFE801F00405060708090A0B81
:1024D00007E030E05AE084E0AEE0D8E002E12CE131
:1024E000FFE71D9816901C9817909DF8670000064E
:1024F000002807D5FFE740F21820C2F20000007F55
:10250000159009E040F21820C2F20000007F013867
:1025100018BF01201590FFE717991698159A80B2F9
:1025200089B2D2B20BF042FF20980138209008B94E
:10253000FFE735E1FFE71D98013013901C981490D8
:102540009DF867004006002807D5FFE740F21820F5
:10255000C2F20000007F129009E040F21820C2F29F
:102560000000007F013818BF01201290FFE7149986
:102570001398129A80B289B2D2B20BF017FF20984A
:102580000138209008B9FFE70AE1FFE71D98023003
:1025900010901C9811909DF867008006002807D5C0
:1025A000FFE740F21820C2F20000007F0F9009E020
:1025B00040F21820C2F20000007F013818BF01204D
:1025C0000F90FFE7119910980F9A80B289B2D2B29A
:1025D0000BF0ECFE20980138209008B9FFE7DFE00F
:1025E000FFE71D9803300D901C980E909DF8670032
:1025F000C006002807D5FFE740F21820C2F200000D
:10260000007F0C9009E040F21820C2F20000007F29
:10261000013818BF01200C90FFE70E990D980C9A15
:1026200080B289B2D2B20BF0C1FE2098013820905E
:1026300008B9FFE7B4E0FFE71D9804300A901C9842
:102640000B909DF867000007002807D5FFE740F2D0
:102650001820C2F20000007F099009E040F2182023
:10266000C2F20000007F013818BF01200990FFE787
:102670000B990A98099A80B289B2D2B20BF096FEF1
:1026800020980138209008B9FFE789E0FFE71D98FE
:10269000053007901C9808909DF8670040070028B7
:1026A00007D5FFE740F21820C2F20000007F069035
:1026B00009E040F21820C2F20000007F013818BF84
:1026C00001200690FFE708990798069A80B289B220
:1026D000D2B20BF06BFE20980138209008B9FFE7CA
:1026E0005EE0FFE71D98063004901C9805909DF869
:1026F00067008007002807D5FFE740F21820C2F2E4
:102700000000007F039009E040F21820C2F20000B0
:10271000007F013818BF01200390FFE70599049856
:10272000039A80B289B2D2B20BF040FE20980138F1
:10273000209008B9FFE733E0FFE71D9807300190CC
:102740001C9802909DF86700C00738B1FFE740F27F
:102750001820C2F20000007F009009E040F218202B
:10276000C2F20000007F013818BF01200090FFE78F
:1027700002990198009A80B289B2D2B20BF016FE8B
:1027800020980138209008B9FFE709E01D9808302B
:102790001D901B98411C1B9140788DF86700A0E6A6
:1027A0001EB080BD80B5022001F0C0FD80BD0000DC
:1027B00080B5042001F0BAFD80BD000080B508207E
:1027C00001F0B4FD80BD000080B5102001F0AEFD29
:1027D00080BD000080B5202001F0A8FD402001F060
:1027E000A5FD80BD80B582B00BF05EFE002001909B
:1027F00018F098FA40F6B83016F00CFA01984EF23C
:102800001002CEF20002116821F0010111600221D4
:1028100003F0C4F802B080BD72B6FFE7FEE7000027
:1028200080B582B00190009101980099002200F0DB
:1028300003F802B080BD000084B0039002918DF8CF
:10284000072001208DF8060000208DF8050047F2D2
:102850002840C2F20000C07C022827DCFFE747F2D4
:102860002843C2F200030093D97C002058540399F6
:10287000DA7C03EB820251609DF80710DA7C1A447F
:102880001174D97C4A1CDA748DF805109DF8051076
:102890003031029A1170029A3A215170029A2F2116
:1028A00091700299C8708DF80600FFE79DF8060048
:1028B00004B0704780B582B0ADF80600BDF80600E0
:1028C0000A2803D1FFE700F035F90FE0BDF8060054
:1028D0000D280AD0FFE740F21820C2F2000000697C
:1028E0000168BDF806008847FFE7FFE702B080BD3A
:1028F00010B586B005900491039204980399DDF811
:1029000014E0BEF80020BEF80230BEF804C0DEF8C5
:102910000840EE46CEF80440CEF800C008F034FF80
:1029200006B010BD10B58AB0ADF8260040F21820F0
:10293000C2F2000000698069BDF8261000F06AF854
:1029400007900798002862D0FFE7079A5068BDF803
:1029500026101288891A00EBC1000690069880782C
:10296000089040F21823C2F200030393B3F9140055
:10297000B3F91610DDF818E09EF800201B691B7DE6
:10298000DDF820C0DEF80440EE46CEF80440CEF874
:1029900000C008F0F9FE03980069017D407D88427F
:1029A00028DDFFE740F2182CC2F2000CDCF8100022
:1029B000407D0590DCF81000007D0490BCF8140008
:1029C000BCF9163004991944069A12780244DDF8CD
:1029D00014E073449CF81CC0BCF1010C18BF4FF00C
:1029E000010CEE46CEF800C089B29BB292B20BF059
:1029F00011FBFFE70698407840F21821C2F200016F
:102A00000A69927D8B8A10FB02308882FFE70AB048
:102A100010BD000082B00190ADF80210FFE70198F0
:102A2000A0B1FFE7BDF8020001990988884208DBE0
:102A3000FFE7BDF8020001994988884201DCFFE701
:102A400004E0FFE7019880680190E8E7019802B090
:102A50007047000080B584B0ADF80E0040F2182039
:102A6000C2F2000000698069BDF80E10FFF7D2FFC6
:102A70000290029888B1FFE7029A5068BDF80E10E4
:102A80001288891A10F8310040F21821C2F20001B0
:102A90000969897D4843019002E000200190FFE729
:102AA000019804B080BD000082B0019000910099AF
:102AB0000120088002B0704780B584B00390ADF863
:102AC0000A1003988069BDF80A10FFF7A3FF019070
:102AD0000198002818BF012004B080BD80B582B0E5
:102AE00000210091084600F0A9F900F069F9019071
:102AF00000F0A0F90099019A0346084600F002F898
:102B000002B080BD80B586B0059004910392029317
:102B1000BDF81400BDF81010BDF80C20BDF8083049
:102B2000EE464FF0000CCEF800C00BF073FA06B082
:102B300080BD000080B500F037F9024640F2182150
:102B4000C2F20001C88A1044C88280BD80B58CB032
:102B50000B900B9808B9FFE7C0E000F025F907904B
:102B600040F21820C2F200000290B0F91400089060
:102B700000F02AF902990990099AC88A801AC88235
:102B8000FFE70B980078002800F09B80FFE70B9888
:102B900047F6FF7100F0FEF904900B98049900F0DD
:102BA000EFF9039040F21820C2F20000408B00F0D1
:102BB00003000146019101280AD0FFE7019802288D
:102BC00009D1FFE7039800EBD07040100A9005E0B0
:102BD00003980A9002E000200A90FFE70A9A40F268
:102BE0001820C2F200000090818A891A8182ADF813
:102BF0001410BDF81410039A11440139ADF81810DF
:102C0000C08AADF81600BDF81600079908440138CF
:102C1000ADF81A000B98049905AA00F095F90099EF
:102C2000BDF81600C8820B98049900F06DF90146B2
:102C30000B9808440B900B9800780A2805D0FFE702
:102C40000B9800780D2828D1FFE740F21820C2F237
:102C50000000408B00F003000138012807D8FFE78F
:102C6000089840F21821C2F20001888206E040F282
:102C70001821C2F2000100208882FFE70B9800783B
:102C80000A2809D1FFE7079A40F21821C2F2000191
:102C9000C88A1044C882FFE709E0BDF81400039910
:102CA000084440F21821C2F200018882FFE70B9825
:102CB000007808B9FFE704E0FFE70B9801300B90BC
:102CC0005FE7099A40F21821C2F20001C88A104455
:102CD000C882488B20F003004883FFE70CB080BD1A
:102CE00080B584B0039002910192029840F21821BD
:102CF000C2F2000188820198C8820398FFF726FF7C
:102D000004B080BD80B584B003900291019240F27E
:102D10001820C2F20000B0F91A0040F0020000F0E2
:102D2000E5F8009003980299019AFFF7D9FF0098FF
:102D300000F0DCF804B080BD80B584B0039002914F
:102D4000019203980299019AFFF7D2FD04B080BD69
:102D500080B584B003900291019202980399019A80
:102D600008F0B6FD04B080BD80B584B00390029138
:102D70000192009303980299019A009B12F04CF97A
:102D800004B080BD80B582B0ADF8060040F21820D6
:102D9000C2F2000000694168BDF806008847009053
:102DA000009802B080BD000081B040F21820C2F24D
:102DB00000000069407D0090009801B0704700005D
:102DC00080B508F039FE80BD82B00020019040F24D
:102DD0001820C2F20000408B00F00C000146009168
:102DE000042808D0FFE70098082816D0FFE70098CD
:102DF0000C2809D01AE040F21820C2F20000006945
:102E0000007D0138019011E040F21820C2F200006C
:102E10000069007D4008019008E040F21820C2F2ED
:102E200000000069007D40080190FFE7019802B0B2
:102E30007047000080B508F001FE80BD80B584B009
:102E400003900291039812F097F98DF80700029809
:102E500012F09EF901469DF8070008438DF807001F
:102E60009DF8070004B080BD80B582B040F23821E3
:102E7000C2F200012E20087040F21821C2F20001B7
:102E80000091002001900880488008F0D5FD00994D
:102E90000138888008F0D2FD009902460198013A75
:102EA000CA808882C8824FF64C10C0F601000861C3
:102EB0000120487208770BF083FB019802B080BDB7
:102EC00082B0019040F21820C2F200000069009028
:102ED000019838B1FFE7019840F21821C2F20001D1
:102EE0000861FFE7009802B07047000082B00190CF
:102EF00040F21821C2F20001B1F91A0000900198C5
:102F00004883009802B0704780B584B00390029166
:102F100000200090FFE70298411E029168B1FFE790
:102F2000039812F099F801900199039808440390CE
:102F30000199009808440090EDE7009804B080BD26
:102F400080B50BF0D5FA80BD80B586B005900491B0
:102F5000039203990868496802910190BDF8040042
:102F600040F21821C2F200018882BDF80600C88232
:102F70000598049901AA12F013F806B080BD00006C
:102F800080B582B0019000910198009912F06AF822
:102F900002B080BD80B582B0019000910198009987
:102FA00012F0AEF802B080BD85B00390029100200F
:102FB0000190FFE7039890F83C00012804D1FFE757
:102FC00002208DF81300F7E00399012081F83C00FE
:102FD000FFE7FFE7029800680A281CD3FFE7029882
:102FE000008800EB4000A0F11E01072000FA01F26A
:102FF00003980168C8689043C86002998868098886
:1030000001EB41011E3900FA01F203980168C8681A
:103010001043C86018E00298008800EB40010720C8
:1030200000FA01F203980168086990430861029967
:103030008868098801EB410100FA01F203980168F0
:10304000086910430861FFE70298406806281BD80A
:10305000FFE70298406800EB8000411F1F2000FA44
:1030600001F203980168486B90434863029908880D
:10307000496801EB8101053900FA01F20398016802
:10308000486B104348633DE0029840680C281CD808
:10309000FFE70298406800EB8000A0F123011F20A9
:1030A00000FA01F203980168086B904308630299E3
:1030B0000888496801EB8101233900FA01F203987D
:1030C0000168086B104308631BE00298406800EB3E
:1030D0008000A0F141011F2000FA01F2039801686D
:1030E000C86A9043C86202990888496801EB810167
:1030F000413900FA01F203980168C86A1043C862B6
:10310000FFE7FFE742F20030C4F2010000900398AD
:10311000006842F20001C4F2010188420BD1FFE7CE
:1031200002980068122806D1FFE70099486840F429
:1031300080004860FFE70398006842F20001C4F293
:10314000010188422ED1FFE702980068102805D0BF
:10315000FFE702980068112824D1FFE7009948682A
:1031600040F40000486002980068102819D1FFE779
:103170004CF20400C2F2010000684DF68361C4F213
:103180001B31A0FB0110800C00EB8000400001907F
:10319000FFE7019820B1FFE7019801380190F8E7B7
:1031A000FFE7FFE7FFE70399002081F83C00FFE716
:1031B00000208DF81300FFE79DF8130005B070475D
:1031C00080B582B0019001984FF22451C2F2000103
:1031D000884227D1FFE74CF20950C2F20100007883
:1031E000012815D0FFE747F22440C2F20000006832
:1031F000062116F091F84CF62820C2F2010005F0E5
:1032000045FB4FF22450C2F2000000F02DFA08E016
:1032100047F22440C2F200000068022116F07CF858
:10322000FFE7FFE702B080BD80B582B00190019852
:103230004FF22451C2F20001884227D1FFE74CF23D
:103240000950C2F201000078012815D0FFE747F2CB
:103250002440C2F200000068052116F05DF84CF62B
:103260002820C2F2010005F011FB4FF22450C2F2F7
:10327000000000F0F9F908E047F22440C2F2000033
:103280000068012116F048F8FFE7FFE702B080BDB3
:1032900081B0009001B0704780B584B002900020EA
:1032A0008DF80700029820B9FFE701208DF80F0084
:1032B00042E00298806A0121C0F60071884201D084
:1032C000FFE7FFE70298006C50B9FFE7029800F0B3
:1032D00037F8029900204864029981F83C00FFE722
:1032E0000298006CC006002817D4FFE70298006C13
:1032F00040F0020020F48850029908640298FEF71A
:10330000B3FB0299002048640298006C40F0010071
:1033100020F002000299086403E001208DF8070004
:10332000FFE7FFE70299002081F83C00FFE79DF8E6
:1033300007008DF80F00FFE79DF80F0004B080BD77
:1033400080B58AB0099000200890079006900590FB
:1033500004900998006842F20001C4F20101884219
:103360005DD1FFE7FFE70020039043F64400C4F27D
:103370000200016841F480710160006800F480700F
:1033800003900398FFE7FFE70020029043F6300028
:10339000C4F20200016841F001010160006800F020
:1033A000010002900298FFE7082004900320059096
:1033B0000020009006900020C4F2020004A900F052
:1033C000D1FF00994CF21450C2F20100019046F274
:1033D0001042C4F20202026041608160C1604FF499
:1033E000806202614FF4006242614FF400528261D8
:1033F0004FF48072C2610162416200F053FE18B165
:10340000FFE7FFF709FAFFE7FFE709984CF21451CD
:10341000C2F20101816309988863FFE7FFE70AB000
:1034200080BD000080B586B0049003910292002018
:103430000190FFE7049890F83C00012804D1FFE7D1
:1034400002208DF817000BE10499012081F83C005F
:10345000FFE7FFE7049800688068C007F0B9FFE75E
:1034600004980168886840F0010088604CF204000C
:10347000C2F2010000684DF68361C4F21B31A0FB6B
:103480000110800C00EB40000190FFE7019820B193
:10349000FFE7019801380190F8E7FFE7049800681A
:1034A0008068C005002807D5FFE704980168886890
:1034B00020F480708860FFE7049800688068C00787
:1034C000002800F0BE80FFE70498006C40F4807094
:1034D00040F20161884304990864049800684068D8
:1034E0004005002809D5FFE70498006C40F480509F
:1034F00020F4005004990864FFE70498006CC004AD
:10350000002806D5FFE70499486C20F006004864BF
:1035100003E0049900204864FFE7FFE704990020D6
:1035200081F83C00FFE742F20030C4F20100009055
:103530000498816B41F67510C0F60000C8630498CA
:10354000816B41F65120C0F6000008640498816B3D
:1035500041F62920C0F60000C864049801686FF0A5
:103560002200086004980168486840F08060486064
:1035700004980168886840F4807088600498016845
:10358000806B4C31039A029B00F044FE0098406827
:10359000C006E8BBFFE70498006842F20001C4F2ED
:1035A0000101884224D0FFE70498006842F200112C
:1035B000C4F20101884208D1FFE742F20430C4F2AC
:1035C00001000068C00698B1FFE70498006842F265
:1035D0000021C4F20101884219D1FFE742F2043010
:1035E000C4F20100006800F01F000F280FD8FFE7A9
:1035F00004980068806810F0405F07D1FFE70498E6
:103600000168886840F080408860FFE7FFE717E0C6
:103610000498006842F20001C4F2010188420ED110
:10362000FFE704980068806810F0405F07D1FFE76B
:1036300004980168886840F080408860FFE7FFE7F1
:103640000AE00499086C40F0100008640499486C82
:1036500040F001004864FFE700208DF81700FFE705
:103660009DF8170006B080BD80B584B002900020A0
:103670008DF80700FFE7029890F83C00012804D17C
:10368000FFE702208DF80F0049E00299012081F840
:103690003C00FFE7FFE702980168886820F001001E
:1036A0008860029800688068C00768BBFFE70298DE
:1036B0000168886820F4807088600298806B90F8B8
:1036C0003500022811D1FFE70298806B00F0BCFAA8
:1036D0008DF807009DF8070030B1FFE70299086CEC
:1036E00040F040000864FFE7FFE70298016848687F
:1036F00020F0806048600298006C40F0010020F4E7
:10370000885002990864FFE7FFE70299002081F8DA
:103710003C00FFE79DF807008DF80F00FFE79DF8DC
:103720000F0004B080BD000081B0009001B0704770
:1037300081B0009001B0704781B0009001B0704737
:1037400087B005900491039200208DF80B00059836
:1037500018B1FFE7049820B9FFE701208DF81B009E
:1037600049E0FFE705984079012804D1FFE70220EE
:103770008DF81B003FE0059901204871FFE7FFE746
:103780000599022008710598006800680190039867
:1037900000F0100140F6FE7000FA01F10198884334
:1037A00001900499086849680843009000980399BB
:1037B00001F0100100FA01F101980843019001980D
:1037C000059909680860039800F01001C02000FA0C
:1037D00001F2059801680868904308600599012086
:1037E0000871FFE7059900204871FFE79DF80B007D
:1037F0008DF81B00FFE79DF81B0007B07047000025
:1038000080B582B001904CF20950C2F201000078FC
:1038100002281FD0FFE74CF25800C2F201000068F6
:1038200012F0ACFD47F63530C0F60200FCF772FE30
:103830004CF62820C2F2010005F028F8019800217A
:10384000009100F0BBF900984CF20951C2F201015D
:10385000087008E047F22440C2F20000006802212C
:1038600015F05AFDFFE702B080BD000080B582B0C0
:1038700001904CF20950C2F20100007802281FD0DA
:10388000FFE74CF25800C2F20100006812F076FD2A
:1038900047F63530C0F60200FCF73CFE4CF6282017
:1038A000C2F2010004F0F2FF01980021009100F043
:1038B00085F900984CF20951C2F20101087008E044
:1038C00047F22440C2F200000068012115F024FDF7
:1038D000FFE702B080BD000081B0009001B07047EA
:1038E00080B582B00090009820B9FFE701208DF8E4
:1038F000070016E00098007938B9FFE7009900202A
:103900004871009800F012F8FFE700990220087152
:10391000009900200861009A012111718DF80700BB
:10392000FFE79DF8070002B080BD000080B58AB0B7
:10393000099000200890079006900590049009983F
:10394000006847F20041C4F20001884260D1FFE7FD
:10395000FFE70020039043F64000C4F20200016834
:1039600041F000510160006800F00050039003989E
:10397000FFE7FFE70020029043F63000C4F20200A8
:10398000016841F001010160006800F0010002904F
:103990000298FFE71020049003200590002000907B
:1039A00006900020C4F2020004A900F0DBFC00999C
:1039B0004FF28050C2F20000019046F28802C4F239
:1039C000020202604FF06062426040228260C16089
:1039D0004FF4806202614FF4006242614FF4005282
:1039E00082614FF48072C2610162416200F05AFB51
:1039F00018B1FFE7FEF710FFFFE7FFE709984FF266
:103A00008051C2F20001816009988863FFE7FFE7F7
:103A10000AB080BD80B58AB0DDF830C0089007914B
:103A20000692059301208DF81300089820B9FFE74E
:103A300001208DF82700BDE0FFE7089840790128B4
:103A400004D1FFE702208DF82700B3E00899012098
:103A50004871FFE7FFE7089902200871079898BBB3
:103A6000FFE70898816841F6CD60C0F60000C863A2
:103A70000898816841F65570C0F6000008640898FF
:103A8000816841F60570C0F60000C86408980168B6
:103A9000086840F4805008600C98029020B1FFE75D
:103AA0000298042805D009E00898006808300390BF
:103AB00009E0089800680C30039004E0089800685A
:103AC00010300390FFE732E00898C16841F6E960E2
:103AD000C0F60000C8630898C16841F66D70C0F672
:103AE000000008640898C16841F62D70C0F6000017
:103AF000C86408980168086840F0805008600C9815
:103B0000019020B1FFE70198042805D009E008984A
:103B100000681430039009E008980068183003909A
:103B200004E0089800681C300390FFE7FFE707985F
:103B300080B9FFE708980168086840F40050086001
:103B4000089880680699039A059B00F063FB8DF83E
:103B500013000FE008980168086840F00050086002
:103B60000898C0680699039A059B00F053FB8DF8EE
:103B70001300FFE7FFE7089900204871FFE79DF871
:103B8000130060B9FFE7079800F01001012000FA68
:103B900001F20898016808681043086005E0089978
:103BA000086940F004000861FFE79DF813008DF8F4
:103BB0002700FFE79DF827000AB080BD80B584B0DC
:103BC00002900191029820B9FFE701208DF80F00C3
:103BD00036E0019800F010014FF4805000FA01F235
:103BE00002980168086890430860019800F010018D
:103BF000012000FA01F20298016808689043086009
:103C0000019858B9FFE70298806800F01DF8029803
:103C10000168086820F4005008600AE00298C06853
:103C200000F012F802980168086820F0005008605F
:103C3000FFE702990120087100208DF80F00FFE7CF
:103C40009DF80F0004B080BD80B584B0029002984A
:103C5000806D019000F092FD0090029890F8350080
:103C600002280DD0FFE7029980204865FFE70299FE
:103C7000002081F83400FFE701208DF80F0055E0A7
:103C800002980168086820F0160008600298016830
:103C9000486920F0800048610298006C20B9FFE775
:103CA0000298806C38B1FFE702980168086820F03C
:103CB00008000860FFE702980168086820F001002A
:103CC0000860FFE7029800680068C007C8B1FFE716
:103CD00000F054FD0099401A062811D3FFE702991D
:103CE000202048650299032081F83500FFE70299FA
:103CF000002081F83400FFE703208DF80F0015E065
:103D0000E0E70298C16D3F208840019988600299E0
:103D1000012081F83500FFE70299002081F8340086
:103D2000FFE7FFE700208DF80F00FFE79DF80F0089
:103D300004B080BD82B00090009890F83500022851
:103D400007D0FFE700998020486501208DF8070023
:103D50000EE00099052081F8350000980168086898
:103D600020F001000860FFE700208DF80700FFE762
:103D70009DF8070002B0704781B000900098406D38
:103D800001B0704780B586B00590002003904CF2DA
:103D90000400C2F20100006848F2B511C1F64E31CC
:103DA000A0FB0110800A02900598806D0190019897
:103DB0000068049004980599C96DC8400007002860
:103DC0001AD5FFE70598006800684007002812D55B
:103DD000FFE705980168086820F00400086005986E
:103DE000C16D08208840019988600599486D40F0B0
:103DF00001004865FFE7FFE704980599C96DC840D1
:103E0000C007A0B1FFE705980068406900060028D8
:103E10000CD5FFE70598C16D0120884001998860A5
:103E20000599486D40F002004865FFE7FFE70498F8
:103E30000599C96DC8404007002814D5FFE70598CB
:103E400000680068800700280CD5FFE70598C16D61
:103E500004208840019988600599486D40F004006D
:103E60004865FFE7FFE704980599C96DC840C0069B
:103E7000002847D5FFE7059800680068000700287C
:103E80003FD5FFE70598C16D1020884001998860F3
:103E9000059800680068400300281AD5FFE70598D8
:103EA000006800680003002809D4FFE70598006C4B
:103EB00020B1FFE70598016C8847FFE708E0059807
:103EC000806C20B1FFE70598816C8847FFE7FFE72A
:103ED00016E0059800680068C005002807D4FFE7D1
:103EE00005980168086820F008000860FFE7059859
:103EF000006C20B1FFE70598016C8847FFE7FFE7FA
:103F0000FFE7FFE704980599C96DC84080060028BF
:103F100040F18D80FFE7059800680068C006002822
:103F200040F18480FFE70598C16D20208840019909
:103F30008860059890F83500052834D1FFE705988A
:103F40000168086820F01600086005980168486953
:103F500020F0800048610598006C20B9FFE70598C3
:103F6000806C38B1FFE705980168086820F0080008
:103F70000860FFE70598C16D3F208840019988607F
:103F80000599012081F83500FFE70599002081F8A7
:103F90003400FFE70598006D20B1FFE70598016D3B
:103FA0008847FFE77BE00598006800684003002829
:103FB0001AD5FFE70598006800680003002809D4B7
:103FC000FFE70598406C20B1FFE70598416C8847F2
:103FD000FFE708E00598C06B20B1FFE70598C16BCB
:103FE0008847FFE7FFE720E0059800680068C00504
:103FF000002811D4FFE705980168086820F0100038
:1040000008600599012081F83500FFE70599002037
:1040100081F83400FFE7FFE70598C06B20B1FFE7A8
:104020000598C16B8847FFE7FFE7FFE7FFE70598C3
:10403000406DA0B3FFE70598406DC00730B3FFE7C0
:104040000599052081F8350005980168086820F079
:1040500001000860FFE7039801300390029988424D
:1040600001D9FFE707E0FFE7059800680068C0078F
:104070000028F0D1FFE70599012081F83500FFE71E
:104080000599002081F83400FFE7FFE70598C06C30
:1040900020B1FFE70598C16C8847FFE7FFE706B04E
:1040A00080BD000080B586B004900020039000F031
:1040B00065FB0290049820B9FFE701208DF81700F6
:1040C000A3E00498406A08B1FFE7FFE704990220E3
:1040D00081F83500FFE70499002081F83400FFE7FC
:1040E00004980168086820F001000860FFE7049860
:1040F00000680068C00790B1FFE700F03FFB02993D
:10410000401A06280AD3FFE704992020486504993D
:10411000032081F835008DF8170076E0E7E7049872
:10412000006800680390039848F23F01CFF2100145
:1041300008400390049900914868D1F808C0CB6802
:104140000A6940EA0C00184310434A6910438A691F
:104150001043CA691043096A014303980843039056
:104160000498406A042808D1FFE70499C86A096BDB
:104170000143039808430390FFE7039804990968F3
:1041800008600498006840690390039820F00700D5
:1041900003900498416A0398084303900498406A86
:1041A00004281AD1FFE70498816A03980843039012
:1041B0000498C06A80B1FFE70498FDF73DFF50B155
:1041C000FFE70499402048650499012081F83500F3
:1041D0008DF8170019E0FFE7FFE7039804990968D5
:1041E00048610498FDF7FCFE01900498C16D3F20E2
:1041F000884001998860049900204865049A01214B
:1042000082F835108DF81700FFE79DF8170006B00B
:1042100080BD000080B588B006900591049203939C
:1042200000208DF80B000698806D0190FFE706983E
:1042300090F83400012804D1FFE702208DF81F0018
:1042400045E00699012081F83400FFE7FFE7069872
:1042500090F8350001282BD1FFE70699022081F85C
:10426000350006990020486506980599049A039B35
:10427000FDF75AFF0698C16D3F208840019988607C
:1042800006980168086840F0160008600698006CFF
:1042900038B1FFE706980168086840F00800086038
:1042A000FFE706980168086840F00100086009E02F
:1042B000FFE70699002081F83400FFE702208DF81F
:1042C0000B00FFE79DF80B008DF81F00FFE79DF83E
:1042D0001F0008B080BD000080B584B0039000F0DE
:1042E0004DFA0290039801900198013048B1FFE720
:1042F00040F2DC10C2F200000178019808440190FD
:10430000FFE7FFE700F03AFA0299401A0199884264
:1043100001D2FFE7F6E704B080BD000080B582B0AF
:10432000ADF8060008F072FA02B080BD80B582B028
:10433000ADF8060043F61440C4F201000068BDF871
:10434000061008420CD0FFE7BDF8060043F6144102
:10435000C4F201010860BDF80600FFF7DFFFFFE7C8
:1043600002B080BD8EB00D900C9100200A90099093
:1043700008900B90FFE70B980F2800F2CC81FFE725
:104380000B99012088400A900C9800680A9908400F
:10439000099009980A99884240F0B881FFE70C9883
:1043A000406800F00300012807D0FFE70C98406840
:1043B00000F0030002282FD1FFE70D9880680890D5
:1043C0000B984100032000FA01F1089888430890F7
:1043D0000C98C0680B99490000FA01F1089808434D
:1043E000089008980D9988600D98406808900B997E
:1043F000012000FA01F10898884308900C98406861
:10440000C0F300100B9900FA01F1089808430890D6
:1044100008980D994860FFE70C98406800F0030089
:10442000032818D0FFE70D98C06808900B9841004A
:10443000032000FA01F10898884308900C988068DE
:104440000B99490000FA01F1089808430890089870
:104450000D99C860FFE70C98406800F0030002283F
:1044600026D1FFE70D980B996FF0030202EA510184
:104470000844006A08900B9800F0070081000F20A4
:1044800000FA01F10898884308900C9800690B998C
:1044900001F00701890000FA01F10898084308902B
:1044A00008980D990B9B02EA530211440862FFE73A
:1044B0000D98006808900B984100032000FA01F164
:1044C0000898884308900C98406800F003000B9906
:1044D000490000FA01F108980843089008980D99DE
:1044E00008600C9880798007002800F00E81FFE7B3
:1044F000FFE70020079043F64400C4F20200016881
:1045000041F480410160006800F480400790079802
:10451000FFE70B9820F0030043F60801C4F2010105
:10452000405808900B9800F0030081000F2000FA1B
:1045300001F10898884308900D980021C4F2020107
:10454000884203D1FFE7002006905EE00D9840F21C
:104550000041C4F20201884203D1FFE70120059027
:1045600050E00D9840F60001C4F20201884203D1E8
:10457000FFE70220049042E00D9840F60041C4F2AB
:104580000201884203D1FFE70320039034E00D9835
:1045900041F20001C4F20201884203D1FFE7042086
:1045A000029026E00D9841F20041C4F202018842D7
:1045B00003D1FFE70520019018E00D9841F60001B6
:1045C000C4F20201884203D1FFE7062000900AE00E
:1045D0000D9941F60042C4F202020820914208BF40
:1045E00007200090FFE700980190FFE701980290F4
:1045F000FFE702980390FFE703980490FFE7049811
:104600000590FFE705980690FFE70698C0B20B9962
:1046100001F00301890000FA01F1089808430890AD
:1046200008980B9921F0030143F60802C4F2010235
:10463000885043F60840C4F20100006808900999C8
:104640000898884308900C988079C006002805D502
:10465000FFE70999089808430890FFE7089843F690
:104660000841C4F20101086043F60C40C4F20100A5
:104670000068089009990898884308900C988079F8
:104680008006002805D5FFE7099908980843089097
:10469000FFE7089843F60C41C4F20101086043F6B5
:1046A0000440C4F201000068089009990898884302
:1046B00008900C9880798007002805D5FFE70999B4
:1046C000089808430890FFE7089843F60441C4F2AD
:1046D0000101086043F60040C4F201000068089040
:1046E00009990898884308900C988079C00728B1E8
:1046F000FFE70999089808430890FFE7089843F6F0
:104700000041C4F201010860FFE7FFE7FFE70B98F3
:1047100001300B902FE60EB07047000082B0019080
:10472000ADF8021001980069BDF80210084204D0EB
:10473000FFE701208DF8010003E000208DF8010063
:10474000FFE79DF8010002B07047000082B00190C1
:10475000ADF802108DF801209DF8010028B1FFE7A7
:10476000BDF802000199886105E0BDF8020000046F
:1047700001998861FFE702B07047000047F680406A
:10478000C2F201000068704780B582B001900198C4
:10479000D0F8DC030CF0D2F802B080BD80B582B056
:1047A00001900198D0F8DC030CF0E6F802B080BD6F
:1047B00080B582B00190019800680FF069F902B0ED
:1047C00080BD000080B582B00190019800680FF0B4
:1047D00069F902B080BD000082B001908DF803102D
:1047E00001989DF80310C1EB011100EB810100203D
:1047F000887601999DF80320C2EB021201EB820139
:10480000C87601999DF80320C2EB021201EB8201E8
:1048100081F8250001999DF80320C2EB021201EBFB
:10482000820181F8240002B07047000082B001903C
:104830008DF8031001989DF80310C1EB011100EBF6
:10484000810090F84C0002B07047000082B00190E7
:104850008DF8031001989DF80310C1EB011100EBD6
:104860008100806B02B0704780B584B002908DF8F3
:10487000071000208DF80600FFE7029890F8D40397
:10488000012804D1FFE702208DF80F0016E00299FD
:10489000012081F8D403FFE7FFE7029800689DF844
:1048A00007100FF017F9FFE70299002081F8D403F1
:1048B000FFE79DF806008DF80F00FFE79DF80F0059
:1048C00004B080BDB0B58AB094468E4604461098B8
:1048D0000F990E9A08948DF81FE08DF81EC08DF880
:1048E0001D308DF81C208DF81B10ADF81800BDF898
:1048F00018000390FFE7089890F8D403012804D12A
:10490000FFE702208DF82700A8E00899012081F830
:10491000D403FFE7FFE708989DF81F10C1EB0111D2
:1049200000EB8101002048769DF81D0008999DF854
:104930001F20C2EB021201EB820108759DF81F00D7
:104940000899C0EB001201EB820148759DF81B002D
:1049500008999DF81F20C2EB021201EB820181F839
:1049600026009DF81E0000F07F0008999DF81F208A
:10497000C2EB021201EB8201887508989DF81F10A6
:10498000FFF72AFF9DF81E00000600280AD5FFE762
:1049900008989DF81F10C1EB011100EB8101012067
:1049A000C87509E008989DF81F10C1EB011100EBD4
:1049B00081010020C875FFE7089800680FF072F8C1
:1049C00004909DF81B00012811D1FFE79DF81C0001
:1049D00001280BD1FFE7049840B9FFE70398BD28F1
:1049E00003D3FFE7BC200390FFE7FFE7FFE79DF855
:1049F0001C0008999DF81F20C2EB021201EB8201F6
:104A00000876039808999DF81F20C2EB021201EB6B
:104A100082010885089800689DF81F109DF81E20E7
:104A20009DF81D309DF81CC09DF81B40BDF80C5032
:104A3000EE46CEF80850CEF80440CEF800C00FF095
:104A400037F98DF81700FFE70899002081F8D403A3
:104A5000FFE79DF817008DF82700FFE79DF8270076
:104A60000AB0B0BD80B582B001908DF803108DF80A
:104A700002200198D0F8DC030CF082F802B080BD6F
:104A8000B0B584B094468E4604460B980A99099AAC
:104A9000089A03948DF80BE08DF80AC08DF8093060
:104AA0008DF80820ADF806108DF805009DF80A0075
:104AB00003999DF80B20C2EB021201EB8201C8752D
:104AC0009DF8090003999DF80B20C2EB021201EB3F
:104AD000820181F826009DF80800A8B9FFE7039835
:104AE0009DF80B10C1EB011100EB8101032081F84F
:104AF0002A009DF8050003999DF80B20C2EB0212D5
:104B000001EB820148760AE003989DF80B10C1EB97
:104B1000011100EB8101022081F82A00FFE79DF8D6
:104B2000090001460091032800F20E810099DFE898
:104B300011F0040000016E00B7009DF80800012884
:104B400064D1FFE79DF80A0088BBFFE7BDF80600C7
:104B500058B9FFE703989DF80B10C1EB011100EB6A
:104B60008101012081F83D00FFE703989DF80B10BB
:104B7000C1EB011100EB810090F83D0058B9FFE74F
:104B800003989DF80B10C1EB011100EB810100208F
:104B900081F82A000AE003989DF80B10C1EB01117F
:104BA00000EB8101022081F82A00FFE72DE0039845
:104BB0009DF80B10C1EB011100EB8100807E0128F4
:104BC00022D1FFE703989DF80B10C1EB011100EB18
:104BD000810090F83C0058B9FFE703989DF80B104E
:104BE000C1EB011100EB8101002081F82A000AE0ED
:104BF00003989DF80B10C1EB011100EB810102201D
:104C000081F82A00FFE7FFE7FFE7FFE79DE09DF857
:104C10000A0010BBFFE703989DF80B10C1EB0111D0
:104C200000EB810090F83D0058B9FFE703989DF82C
:104C30000B10C1EB011100EB8101002081F82A006B
:104C40000AE003989DF80B10C1EB011100EB810104
:104C5000022081F82A00FFE721E003989DF80B105D
:104C6000C1EB011100EB810090F83C0058B9FFE75F
:104C700003989DF80B10C1EB011100EB810100209E
:104C800081F82A000AE003989DF80B10C1EB01118E
:104C900000EB8101022081F82A00FFE7FFE754E0E2
:104CA0009DF80A0010BBFFE703989DF80B10C1EBBD
:104CB000011100EB810090F83D0058B9FFE703981F
:104CC0009DF80B10C1EB011100EB8101002081F870
:104CD0002A000AE003989DF80B10C1EB011100EBCC
:104CE0008101022081F82A00FFE721E003989DF866
:104CF0000B10C1EB011100EB810090F83C0058B99A
:104D0000FFE703989DF80B10C1EB011100EB810147
:104D1000002081F82A000AE003989DF80B10C1EBEF
:104D2000011100EB8101022081F82A00FFE7FFE773
:104D30000BE003989DF80B10C1EB011100EB810112
:104D4000002081F82A0000E0FFE7099803999DF808
:104D50000B20C2EB021201EB8201C862BDF8060013
:104D600003999DF80B20C2EB021201EB820148630C
:104D700003989DF80B10C1EB011100EB810100209D
:104D800081F84C0003999DF80B20C2EB021201EB55
:104D9000820188639DF80B10039AC1EB011302EBAB
:104DA0008302517503999DF80B20C2EB021201EBAF
:104DB000820181F84D00039A10689DF80B10C1EB39
:104DC000011102EB8101143192790FF097F804B0D0
:104DD000B0BD000080B586B00590059800680490CD
:104DE00004980390059800680EF06CFE012840F0CE
:104DF000E180FFE7059800680FF0ECFB08B9FFE7DA
:104E0000D8E0059800680FF0E5FB8002002806D581
:104E1000FFE7059801684FF400104861FFE7059827
:104E200000680FF0D7FBC002002806D5FFE7059801
:104E300001684FF480104861FFE7059800680FF0A3
:104E4000C9FB4001002806D5FFE7059801684FF02F
:104E500080604861FFE7059800680FF0BBFB8007A2
:104E6000002805D5FFE70598016802204861FFE7A3
:104E7000059800680FF0AEFB8000002822D5FFE700
:104E8000059801684FF0005048610398D0F840043D
:104E9000C007B0B9FFE7049810210EF0BBFD0498DD
:104EA0000EF07EFD0598407A022806D1FFE70598AE
:104EB000006801210FF038FBFFE70598FFF76EFC53
:104EC000FFE7FFE7059800680FF084FBC0010028AA
:104ED00004D5FFE7059805F063FFFFE70598006834
:104EE0000FF078FB0007002808D5FFE7059800F0D1
:104EF0005DF90598016808204861FFE7059800689A
:104F00000FF068FB8001002838D5FFE7059800689E
:104F10000EF0EAFF019000200290FFE70298059949
:104F20004979884224D2FFE70198029901F00F01E4
:104F3000C840C007B8B1FFE70398029900EB4110E1
:104F4000D0F800050004002806D5FFE705989DF875
:104F5000081004F00BFD05E005989DF8081005F019
:104F6000E5FAFFE7FFE7FFE7029801300290D5E797
:104F7000059801684FF000704861FFE705980068E8
:104F80000FF028FB00F010010020B0EB111F10D033
:104F9000FFE705980168886920F01000886105988E
:104FA00005F070FF05980168886940F0100088617D
:104FB000FFE7FFE706B080BD80B58CB00A900A9885
:104FC00020B9FFE701208DF82F0075E00A980068EE
:104FD00009900A9890F8D50340B9FFE70A99002094
:104FE00081F8D4030A9800F06BF8FFE70A990320D0
:104FF00081F8D5030998B0F1A04F04D1FFE70A99D1
:1050000000208871FFE70A9800680EF051FC0A9BA7
:105010001868197C8DF8201059689A68DB68079326
:10502000069205910599069A079BDDF820C0EE4689
:10503000CEF800C00EF094FB40B1FFE70A990220C1
:1050400081F8D50301208DF82F0035E00A9800681B
:1050500001210FF04DFB40B1FFE70A99022081F8D2
:10506000D50301208DF82F0026E00A9B1868197CD3
:105070008DF8101059689A68DB68039302920191C9
:105080000199029A039BDDF810C0EE46CEF800C0ED
:105090000FF086F940B1FFE70A99022081F8D503A5
:1050A00001208DF82F0007E00A99012081F8D5032F
:1050B00000208DF82F00FFE79DF82F000CB080BD79
:1050C00080B58AB00990002008900790069005905E
:1050D000049009980068B0F1A04F47D1FFE7FFE7BF
:1050E0000020039043F63000C4F20200016841F052
:1050F00001010160006800F0010003900398FFE7E0
:105100004FF4C05004900220059000200690032028
:1051100007900A2008900020C4F2020004A9FFF7BB
:1051200021F9FFE743F63401C4F20201086840F0B8
:1051300080000860FFE70020029043F64400C4F2BC
:105140000200016841F480410160006800F4804081
:1051500002900298FFE7FFE743200190052100221B
:1051600000F0FAFB019800F0EDFBFFE70AB080BD0C
:1051700080B582B001900198D0F8DC030BF052FDAD
:1051800002B080BD80B582B001900198D0F8DC03F8
:105190000BF050FD02B080BD80B582B00190019847
:1051A00000680FF07FFA02B080BD000080B582B0C9
:1051B00001900198D0F8DC030BF09CFC02B080BD9C
:1051C00080B582B00090FFE7009890F8D4030128E2
:1051D00004D1FFE702208DF8070018E000990120B4
:1051E00081F8D403FFE7FFE70098006801210EF083
:1051F00099FB009800680EF0C9FBFFE700990020BA
:1052000081F8D403FFE700208DF80700FFE79DF841
:10521000070002B080BD000080B582B00090FFE7BB
:10522000009890F8D403012804D1FFE702208DF8FC
:10523000070013E00099012081F8D403FFE7FFE79E
:10524000009800680FF0C4FAFFE70099002081F889
:10525000D403FFE700208DF80700FFE79DF8070063
:1052600002B080BD80B58EB00C900C9820B9FFE7DD
:1052700001208DF8370043E10C9890F83D0040B9CB
:10528000FFE70C99002081F83C000C9800F044FAEC
:10529000FFE70C99242081F83D000C98016808680C
:1052A00020F0010008600C980168086840F4004094
:1052B00008600C980168086820F40040086000F05D
:1052C0001BFE0A900C98406848F2A061C0F20101F0
:1052D00088420BD8FFE70A9948F28042C0F21E02CA
:1052E0000020914238BF012009900AE00A9940F657
:1052F0000012C0F23D020020914238BF0120099007
:10530000FFE70998012804D1FFE701208DF8370055
:10531000F6E00A984DF68361C4F21B31A0FB011040
:10532000800C0B900C980068406820F03F000B99AF
:1053300008430C99096848600C980068006A20F0DE
:105340003F0008900C98406848F2A061C0F201014B
:10535000884204D8FFE70B98013007900EE00B98C5
:105360004FF49671484344F6D351C1F26201A0FB59
:105370000101012000EB91100790FFE708980799C1
:1053800008430C99096808620C980068C0694CF6DB
:10539000FF71884306900C98406848F2A061C0F203
:1053A000010188421FD8FFE70A9801380C99496823
:1053B0004900B0FBF1F001306FF31F30032803D830
:1053C000FFE7042005900BE00A9801380C99496822
:1053D0004900B0FBF1F001306FF31F300590FFE79B
:1053E000059804904CE00C98806868B9FFE70A982B
:1053F00001380C99496801EB4101B0FBF1F0013033
:105400006FF31F3003900DE00A9801380C9949683A
:1054100019225143B0FBF1F00130042161F31F3038
:105420000390FFE70398000518B9FFE701200290F9
:1054300023E00C98806868B9FFE70A9801380C9956
:10544000496801EB4101B0FBF1F001306FF31F300F
:1054500001900DE00A9801380C99496819225143CE
:10546000B0FBF1F00130042161F31F300190FFE740
:10547000019840F400400290FFE702980490FFE793
:105480000698049908430C990968C8610C9800684B
:10549000006820F0C0000C9B1968DA691B6A1A4387
:1054A000104308600C980068806848F2FF31884318
:1054B0000C9A1168D36812691A43104388600C98DB
:1054C0000068C06820F0FF000C9B19685A699B694E
:1054D0001A431043C8600C980168086840F0010046
:1054E00008600C99002008640C9A202182F83D1075
:1054F0000C9908630C9981F83E008DF83700FFE79E
:105500009DF837000EB080BD10B588B084460C9869
:105510000B98DDF828E0CDF818C0ADF81610ADF8FE
:105520001420ADF81230ADF81000FFF727F9039002
:10553000069890F83D00202840F0E680FFE70698A6
:1055400003996A4611600221C0F210010122192359
:1055500005F06CFE20B1FFE702208DF81F00D7E0B8
:10556000FFE7069890F83C00012804D1FFE70220ED
:105570008DF81F00CCE00699012081F83C00FFE780
:10558000FFE7069800680068C00738B9FFE706988B
:105590000168086840F001000860FFE706980168AC
:1055A000086820F4006008600699212081F83D0019
:1055B0000699402081F83E000699002008640A9868
:1055C00006994862BDF81000069948850698408DF6
:1055D0000699088506990020CFF6FF70C8620698E4
:1055E000BDF81610BDF81420BDF81230DDF830C03B
:1055F000039CEE46CEF80440CEF800C005F022FD34
:1056000020B1FFE701208DF81F0081E0FFE7069839
:10561000008D002849D0FFE706980C99039A05F001
:1056200033FF80B1FFE70698006C042807D1FFE73D
:1056300006980168086840F400700860FFE70120E0
:105640008DF81F0064E006980168406A00780861E0
:105650000699486A013048620699088D0138088524
:105660000699488D0138488506980068406900F021
:1056700004010120B0EB910F16D1FFE70698008DD1
:1056800090B1FFE706980168406A007808610699C2
:10569000486A013048620699088D013808850699E4
:1056A000488D01384885FFE7B1E706980C99039AC1
:1056B00005F066FD80B1FFE70698006C042807D16D
:1056C000FFE706980168086840F400700860FFE78B
:1056D00001208DF81F001BE006980168086840F45F
:1056E000007008600699202081F83D00069900208E
:1056F00081F83E00FFE70699002081F83C00FFE7B3
:1057000000208DF81F0003E002208DF81F00FFE746
:105710009DF81F0008B010BD80B588B0079000202C
:10572000069005900490039002900798006845F257
:105730000041C4F20001884234D1FFE7FFE70020B6
:10574000019043F63000C4F20200016841F002010A
:105750000160006800F0020001900198FFE7C0209E
:105760000290122003900020049003200590042052
:10577000069040F20040C4F2020002A9FEF7F2FDDA
:10578000FFE70020009043F64000C4F202000168E9
:1057900041F400110160006800F4001000900098CE
:1057A000FFE7FFE708B080BD40F2DC10C2F2000066
:1057B000027847F68041C2F201010868104408608F
:1057C0007047000080B543F60041C4F2020108684A
:1057D00040F400700860086840F480600860086861
:1057E00040F480700860032000F0D0F80F2000F033
:1057F00005F800F07BF8002080BD000080B58CB07B
:105800000B90002004900390FFE70020009043F6E7
:105810004000C4F20200016841F02001016000680C
:1058200000F0200000900098FFE706A802A900F011
:1058300033FB09980490049820B9FFE700F05CFB63
:10584000059004E000F058FB40000590FFE7059844
:105850004DF68361C4F21B31A0FB01014FF0FF3014
:1058600000EB914003904FF26470C2F2000041F2ED
:105870000041C4F20001016040F2E731C1600399C8
:105880004160002101618160816102F061FE8DF85B
:1058900007009DF8070028BBFFE74FF26470C2F2D3
:1058A000000002F077FF8DF807009DF80700C0B9EF
:1058B000FFE7372000F046F80B980F280CD8FFE7D9
:1058C0000B993720002200F047F80B984CF2840126
:1058D000C2F20101086003E001208DF80700FFE734
:1058E000FFE7FFE79DF807000CB080BD80B582B0F0
:1058F000FFE70020019043F64400C4F20200016873
:1059000041F480410160006800F4804001900198FA
:10591000FFE7FFE70020009043F64000C4F20200DA
:10592000016841F080510160006800F080500090F3
:105930000098FFE76FF001000F21002200F00CF843
:1059400002B080BD80B582B08DF807009DF90700D8
:105950000FF02AFC02B080BD80B586B08DF817002C
:1059600004910392002002900FF036FC02909DF902
:105970001700019002980499039A06F035FD01463C
:1059800001980FF031FC06B080BD000080B582B0F8
:10599000019001980FF06CFC02B080BD82B00190C4
:1059A0008DF8031047F20001C4F20001086820F0EE
:1059B0000300019A104308604EF61051CEF2000128
:1059C000086840F0040008609DF80300012802D137
:1059D000FFE730BF09E09DF80300032803D0FFE78D
:1059E00040BF20BFFFE720BFFFE74EF61051CEF2C9
:1059F0000001086820F00400086002B07047000051
:105A000080B586B00490002003900290049800783E
:105A1000C00730B9FFE704980078400700284ED54A
:105A2000FFE76821C4F2472100200860FEF7A6FEC8
:105A30000390FFE743F60000C4F20200006800F0A4
:105A400000610020B0EBD16F0CD0FFE7FEF796FEAF
:105A50000399401A032804D3FFE703208DF81700A9
:105A6000E4E0E7E7049948688968800140EA01704A
:105A700043F68401C4F2020108606821C4F24721A0
:105A800001200860FEF77AFE0390FFE743F600006E
:105A9000C4F20200006800F000610020B0EBD16F9A
:105AA0000CD1FFE7FEF76AFE0399401A032804D3DE
:105AB000FFE703208DF81700B8E0E7E7FFE7049859
:105AC00000788007002840F1AD80FFE7FFE7002065
:105AD000019043F64000C4F20200016841F0805199
